{
  "_format": "hh-sol-artifact-1",
  "contractName": "TateMorpheus",
  "sourceName": "contracts/TateMorpheus.sol",
  "abi": [
    {
      "inputs": [
        {
          "internalType": "string",
          "name": "name",
          "type": "string"
        },
        {
          "internalType": "string",
          "name": "symbol",
          "type": "string"
        }
      ],
      "stateMutability": "nonpayable",
      "type": "constructor"
    },
    {
      "anonymous": false,
      "inputs": [
        {
          "indexed": true,
          "internalType": "address",
          "name": "owner",
          "type": "address"
        },
        {
          "indexed": true,
          "internalType": "address",
          "name": "approved",
          "type": "address"
        },
        {
          "indexed": true,
          "internalType": "uint256",
          "name": "tokenId",
          "type": "uint256"
        }
      ],
      "name": "Approval",
      "type": "event"
    },
    {
      "anonymous": false,
      "inputs": [
        {
          "indexed": true,
          "internalType": "address",
          "name": "owner",
          "type": "address"
        },
        {
          "indexed": true,
          "internalType": "address",
          "name": "operator",
          "type": "address"
        },
        {
          "indexed": false,
          "internalType": "bool",
          "name": "approved",
          "type": "bool"
        }
      ],
      "name": "ApprovalForAll",
      "type": "event"
    },
    {
      "anonymous": false,
      "inputs": [
        {
          "indexed": true,
          "internalType": "address",
          "name": "to",
          "type": "address"
        },
        {
          "indexed": false,
          "internalType": "uint256[]",
          "name": "tokenIds",
          "type": "uint256[]"
        },
        {
          "indexed": false,
          "internalType": "string[]",
          "name": "uris",
          "type": "string[]"
        }
      ],
      "name": "MintedBatch",
      "type": "event"
    },
    {
      "anonymous": false,
      "inputs": [
        {
          "indexed": true,
          "internalType": "address",
          "name": "to",
          "type": "address"
        },
        {
          "indexed": false,
          "internalType": "uint256",
          "name": "tokenId",
          "type": "uint256"
        },
        {
          "indexed": false,
          "internalType": "string",
          "name": "uri",
          "type": "string"
        }
      ],
      "name": "MintedNFT",
      "type": "event"
    },
    {
      "anonymous": false,
      "inputs": [
        {
          "indexed": true,
          "internalType": "address",
          "name": "previousOwner",
          "type": "address"
        },
        {
          "indexed": true,
          "internalType": "address",
          "name": "newOwner",
          "type": "address"
        }
      ],
      "name": "OwnershipTransferred",
      "type": "event"
    },
    {
      "anonymous": false,
      "inputs": [
        {
          "indexed": true,
          "internalType": "address",
          "name": "from",
          "type": "address"
        },
        {
          "indexed": true,
          "internalType": "address",
          "name": "to",
          "type": "address"
        },
        {
          "indexed": true,
          "internalType": "uint256",
          "name": "tokenId",
          "type": "uint256"
        }
      ],
      "name": "Transfer",
      "type": "event"
    },
    {
      "inputs": [],
      "name": "MAX_BATCH",
      "outputs": [
        {
          "internalType": "uint256",
          "name": "",
          "type": "uint256"
        }
      ],
      "stateMutability": "view",
      "type": "function"
    },
    {
      "inputs": [
        {
          "internalType": "address",
          "name": "to",
          "type": "address"
        },
        {
          "internalType": "uint256",
          "name": "tokenId",
          "type": "uint256"
        }
      ],
      "name": "approve",
      "outputs": [],
      "stateMutability": "nonpayable",
      "type": "function"
    },
    {
      "inputs": [
        {
          "internalType": "address",
          "name": "owner",
          "type": "address"
        }
      ],
      "name": "balanceOf",
      "outputs": [
        {
          "internalType": "uint256",
          "name": "",
          "type": "uint256"
        }
      ],
      "stateMutability": "view",
      "type": "function"
    },
    {
      "inputs": [],
      "name": "currentId",
      "outputs": [
        {
          "internalType": "uint256",
          "name": "",
          "type": "uint256"
        }
      ],
      "stateMutability": "view",
      "type": "function"
    },
    {
      "inputs": [
        {
          "internalType": "uint256",
          "name": "tokenId",
          "type": "uint256"
        }
      ],
      "name": "getApproved",
      "outputs": [
        {
          "internalType": "address",
          "name": "",
          "type": "address"
        }
      ],
      "stateMutability": "view",
      "type": "function"
    },
    {
      "inputs": [
        {
          "internalType": "address",
          "name": "owner",
          "type": "address"
        },
        {
          "internalType": "address",
          "name": "operator",
          "type": "address"
        }
      ],
      "name": "isApprovedForAll",
      "outputs": [
        {
          "internalType": "bool",
          "name": "",
          "type": "bool"
        }
      ],
      "stateMutability": "view",
      "type": "function"
    },
    {
      "inputs": [
        {
          "internalType": "address",
          "name": "_to",
          "type": "address"
        },
        {
          "internalType": "uint256",
          "name": "_amount",
          "type": "uint256"
        },
        {
          "internalType": "string[]",
          "name": "_uris",
          "type": "string[]"
        }
      ],
      "name": "mintBatch",
      "outputs": [],
      "stateMutability": "nonpayable",
      "type": "function"
    },
    {
      "inputs": [
        {
          "internalType": "address",
          "name": "_to",
          "type": "address"
        },
        {
          "internalType": "string",
          "name": "_uri",
          "type": "string"
        }
      ],
      "name": "mintNFT",
      "outputs": [],
      "stateMutability": "nonpayable",
      "type": "function"
    },
    {
      "inputs": [],
      "name": "name",
      "outputs": [
        {
          "internalType": "string",
          "name": "",
          "type": "string"
        }
      ],
      "stateMutability": "view",
      "type": "function"
    },
    {
      "inputs": [],
      "name": "owner",
      "outputs": [
        {
          "internalType": "address",
          "name": "",
          "type": "address"
        }
      ],
      "stateMutability": "view",
      "type": "function"
    },
    {
      "inputs": [
        {
          "internalType": "uint256",
          "name": "tokenId",
          "type": "uint256"
        }
      ],
      "name": "ownerOf",
      "outputs": [
        {
          "internalType": "address",
          "name": "",
          "type": "address"
        }
      ],
      "stateMutability": "view",
      "type": "function"
    },
    {
      "inputs": [],
      "name": "renounceOwnership",
      "outputs": [],
      "stateMutability": "nonpayable",
      "type": "function"
    },
    {
      "inputs": [
        {
          "internalType": "address",
          "name": "from",
          "type": "address"
        },
        {
          "internalType": "address",
          "name": "to",
          "type": "address"
        },
        {
          "internalType": "uint256",
          "name": "tokenId",
          "type": "uint256"
        }
      ],
      "name": "safeTransferFrom",
      "outputs": [],
      "stateMutability": "nonpayable",
      "type": "function"
    },
    {
      "inputs": [
        {
          "internalType": "address",
          "name": "from",
          "type": "address"
        },
        {
          "internalType": "address",
          "name": "to",
          "type": "address"
        },
        {
          "internalType": "uint256",
          "name": "tokenId",
          "type": "uint256"
        },
        {
          "internalType": "bytes",
          "name": "data",
          "type": "bytes"
        }
      ],
      "name": "safeTransferFrom",
      "outputs": [],
      "stateMutability": "nonpayable",
      "type": "function"
    },
    {
      "inputs": [
        {
          "internalType": "address",
          "name": "operator",
          "type": "address"
        },
        {
          "internalType": "bool",
          "name": "approved",
          "type": "bool"
        }
      ],
      "name": "setApprovalForAll",
      "outputs": [],
      "stateMutability": "nonpayable",
      "type": "function"
    },
    {
      "inputs": [
        {
          "internalType": "bytes4",
          "name": "interfaceId",
          "type": "bytes4"
        }
      ],
      "name": "supportsInterface",
      "outputs": [
        {
          "internalType": "bool",
          "name": "",
          "type": "bool"
        }
      ],
      "stateMutability": "view",
      "type": "function"
    },
    {
      "inputs": [],
      "name": "symbol",
      "outputs": [
        {
          "internalType": "string",
          "name": "",
          "type": "string"
        }
      ],
      "stateMutability": "view",
      "type": "function"
    },
    {
      "inputs": [
        {
          "internalType": "uint256",
          "name": "tokenId",
          "type": "uint256"
        }
      ],
      "name": "tokenURI",
      "outputs": [
        {
          "internalType": "string",
          "name": "",
          "type": "string"
        }
      ],
      "stateMutability": "view",
      "type": "function"
    },
    {
      "inputs": [
        {
          "internalType": "address",
          "name": "from",
          "type": "address"
        },
        {
          "internalType": "address",
          "name": "to",
          "type": "address"
        },
        {
          "internalType": "uint256",
          "name": "tokenId",
          "type": "uint256"
        }
      ],
      "name": "transferFrom",
      "outputs": [],
      "stateMutability": "nonpayable",
      "type": "function"
    },
    {
      "inputs": [
        {
          "internalType": "address",
          "name": "newOwner",
          "type": "address"
        }
      ],
      "name": "transferOwnership",
      "outputs": [],
      "stateMutability": "nonpayable",
      "type": "function"
    }
  ],
  "bytecode": "0x60806040523480156200001157600080fd5b5060405162001f7138038062001f71833981016040819052620000349162000193565b818160006200004483826200028c565b5060016200005382826200028c565b505050620000706200006a6200007860201b60201c565b6200007c565b505062000358565b3390565b600780546001600160a01b038381166001600160a01b0319831681179093556040519116919082907f8be0079c531659141344cd1fd0a4f28419497f9722a3daafe3b4186f6b6457e090600090a35050565b634e487b7160e01b600052604160045260246000fd5b600082601f830112620000f657600080fd5b81516001600160401b0380821115620001135762000113620000ce565b604051601f8301601f19908116603f011681019082821181831017156200013e576200013e620000ce565b816040528381526020925086838588010111156200015b57600080fd5b600091505b838210156200017f578582018301518183018401529082019062000160565b600093810190920192909252949350505050565b60008060408385031215620001a757600080fd5b82516001600160401b0380821115620001bf57600080fd5b620001cd86838701620000e4565b93506020850151915080821115620001e457600080fd5b50620001f385828601620000e4565b9150509250929050565b600181811c908216806200021257607f821691505b6020821081036200023357634e487b7160e01b600052602260045260246000fd5b50919050565b601f8211156200028757600081815260208120601f850160051c81016020861015620002625750805b601f850160051c820191505b8181101562000283578281556001016200026e565b5050505b505050565b81516001600160401b03811115620002a857620002a8620000ce565b620002c081620002b98454620001fd565b8462000239565b602080601f831160018114620002f85760008415620002df5750858301515b600019600386901b1c1916600185901b17855562000283565b600085815260208120601f198616915b82811015620003295788860151825594840194600190910190840162000308565b5085821015620003485787850151600019600388901b60f8161c191681555b5050505050600190811b01905550565b611c0980620003686000396000f3fe608060405234801561001057600080fd5b506004361061012c5760003560e01c8063950bff9f116100ad578063c87b56dd11610071578063c87b56dd1461026a578063e00dd1611461027d578063e985e9c514610286578063eacabe1414610299578063f2fde38b146102ac57600080fd5b8063950bff9f1461022157806395d89b41146102295780639cd3f84014610231578063a22cb46514610244578063b88d4fde1461025757600080fd5b806342842e0e116100f457806342842e0e146101c15780636352211e146101d457806370a08231146101e7578063715018a6146102085780638da5cb5b1461021057600080fd5b806301ffc9a71461013157806306fdde0314610159578063081812fc1461016e578063095ea7b31461019957806323b872dd146101ae575b600080fd5b61014461013f3660046113fb565b6102bf565b60405190151581526020015b60405180910390f35b610161610311565b6040516101509190611468565b61018161017c36600461147b565b6103a3565b6040516001600160a01b039091168152602001610150565b6101ac6101a73660046114b0565b6103ca565b005b6101ac6101bc3660046114da565b6104e4565b6101ac6101cf3660046114da565b610515565b6101816101e236600461147b565b610530565b6101fa6101f5366004611516565b610590565b604051908152602001610150565b6101ac610616565b6007546001600160a01b0316610181565b6101fa601481565b61016161062a565b6101ac61023f3660046115f0565b610639565b6101ac6102523660046116cf565b610815565b6101ac61026536600461170b565b610824565b61016161027836600461147b565b61085c565b6101fa60085481565b610144610294366004611787565b61096c565b6101ac6102a73660046117ba565b61099a565b6101ac6102ba366004611516565b610a60565b60006001600160e01b031982166380ac58cd60e01b14806102f057506001600160e01b03198216635b5e139f60e01b145b8061030b57506301ffc9a760e01b6001600160e01b03198316145b92915050565b60606000805461032090611808565b80601f016020809104026020016040519081016040528092919081815260200182805461034c90611808565b80156103995780601f1061036e57610100808354040283529160200191610399565b820191906000526020600020905b81548152906001019060200180831161037c57829003601f168201915b5050505050905090565b60006103ae82610ad9565b506000908152600460205260409020546001600160a01b031690565b60006103d582610530565b9050806001600160a01b0316836001600160a01b0316036104475760405162461bcd60e51b815260206004820152602160248201527f4552433732313a20617070726f76616c20746f2063757272656e74206f776e656044820152603960f91b60648201526084015b60405180910390fd5b336001600160a01b03821614806104635750610463813361096c565b6104d55760405162461bcd60e51b815260206004820152603e60248201527f4552433732313a20617070726f76652063616c6c6572206973206e6f7420746f60448201527f6b656e206f776e6572206e6f7220617070726f76656420666f7220616c6c0000606482015260840161043e565b6104df8383610b38565b505050565b6104ee3382610ba6565b61050a5760405162461bcd60e51b815260040161043e90611842565b6104df838383610c04565b6104df83838360405180602001604052806000815250610824565b6000818152600260205260408120546001600160a01b03168061030b5760405162461bcd60e51b8152602060048201526018602482015277115490cdcc8c4e881a5b9d985b1a59081d1bdad95b88125160421b604482015260640161043e565b60006001600160a01b0382166105fa5760405162461bcd60e51b815260206004820152602960248201527f4552433732313a2061646472657373207a65726f206973206e6f7420612076616044820152683634b21037bbb732b960b91b606482015260840161043e565b506001600160a01b031660009081526003602052604090205490565b61061e610da0565b6106286000610dfa565b565b60606001805461032090611808565b610641610da0565b600082118015610652575060148211155b6106b65760405162461bcd60e51b815260206004820152602f60248201527f6d757374206d696e74206174206c65617374206f6e6520616e6420666577657260448201526e040e8d0c2dc409a82b0be8482a8869608b1b606482015260840161043e565b805182146107065760405162461bcd60e51b815260206004820152601a60248201527f75726973206172726179206c656e677468206d69736d61746368000000000000604482015260640161043e565b60085460008367ffffffffffffffff81111561072457610724611531565b60405190808252806020026020018201604052801561074d578160200160208202803683370190505b50905060005b848110156107c3578282828151811061076e5761076e611890565b602090810291909101015261078e86610786856118bc565b945084610e4c565b6107b1838583815181106107a4576107a4611890565b6020026020010151610e66565b806107bb816118bc565b915050610753565b5081600881905550846001600160a01b03167fc411deae1e16185e61ddb05979e773d72e4badda0fedfefdab44360e6f04105782856040516108069291906118d5565b60405180910390a25050505050565b610820338383610ef9565b5050565b61082e3383610ba6565b61084a5760405162461bcd60e51b815260040161043e90611842565b61085684848484610fc7565b50505050565b606061086782610ad9565b6000828152600660205260408120805461088090611808565b80601f01602080910402602001604051908101604052809291908181526020018280546108ac90611808565b80156108f95780601f106108ce576101008083540402835291602001916108f9565b820191906000526020600020905b8154815290600101906020018083116108dc57829003601f168201915b50505050509050600061091760408051602081019091526000815290565b90508051600003610929575092915050565b81511561095b57808260405160200161094392919061196d565b60405160208183030381529060405292505050919050565b61096484610ffa565b949350505050565b6001600160a01b03918216600090815260056020908152604080832093909416825291909152205460ff1690565b6109a2610da0565b6001600160a01b0382166109ea5760405162461bcd60e51b815260206004820152600f60248201526e496e76616c6964206164647265737360881b604482015260640161043e565b600880549060006109fa836118bc565b9190505550610a0b82600854610e4c565b610a1760085482610e66565b816001600160a01b03167f9f0432214927ca5d54e705bee45cb45cd0b88d9c6bc15906cc3498feb1d8131060085483604051610a5492919061199c565b60405180910390a25050565b610a68610da0565b6001600160a01b038116610acd5760405162461bcd60e51b815260206004820152602660248201527f4f776e61626c653a206e6577206f776e657220697320746865207a65726f206160448201526564647265737360d01b606482015260840161043e565b610ad681610dfa565b50565b6000818152600260205260409020546001600160a01b0316610ad65760405162461bcd60e51b8152602060048201526018602482015277115490cdcc8c4e881a5b9d985b1a59081d1bdad95b88125160421b604482015260640161043e565b600081815260046020526040902080546001600160a01b0319166001600160a01b0384169081179091558190610b6d82610530565b6001600160a01b03167f8c5be1e5ebec7d5bd14f71427d1e84f3dd0314c0f7b2291e5b200ac8c7c3b92560405160405180910390a45050565b600080610bb283610530565b9050806001600160a01b0316846001600160a01b03161480610bd95750610bd9818561096c565b806109645750836001600160a01b0316610bf2846103a3565b6001600160a01b031614949350505050565b826001600160a01b0316610c1782610530565b6001600160a01b031614610c7b5760405162461bcd60e51b815260206004820152602560248201527f4552433732313a207472616e736665722066726f6d20696e636f72726563742060448201526437bbb732b960d91b606482015260840161043e565b6001600160a01b038216610cdd5760405162461bcd60e51b8152602060048201526024808201527f4552433732313a207472616e7366657220746f20746865207a65726f206164646044820152637265737360e01b606482015260840161043e565b610ce8600082610b38565b6001600160a01b0383166000908152600360205260408120805460019290610d119084906119b5565b90915550506001600160a01b0382166000908152600360205260408120805460019290610d3f9084906119c8565b909155505060008181526002602052604080822080546001600160a01b0319166001600160a01b0386811691821790925591518493918716917fddf252ad1be2c89b69c2b068fc378daa952ba7f163c4a11628f55a4df523b3ef91a4505050565b6007546001600160a01b031633146106285760405162461bcd60e51b815260206004820181905260248201527f4f776e61626c653a2063616c6c6572206973206e6f7420746865206f776e6572604482015260640161043e565b600780546001600160a01b038381166001600160a01b0319831681179093556040519116919082907f8be0079c531659141344cd1fd0a4f28419497f9722a3daafe3b4186f6b6457e090600090a35050565b61082082826040518060200160405280600081525061106e565b6000828152600260205260409020546001600160a01b0316610ee15760405162461bcd60e51b815260206004820152602e60248201527f45524337323155524953746f726167653a2055524920736574206f66206e6f6e60448201526d32bc34b9ba32b73a103a37b5b2b760911b606482015260840161043e565b60008281526006602052604090206104df8282611a29565b816001600160a01b0316836001600160a01b031603610f5a5760405162461bcd60e51b815260206004820152601960248201527f4552433732313a20617070726f766520746f2063616c6c657200000000000000604482015260640161043e565b6001600160a01b03838116600081815260056020908152604080832094871680845294825291829020805460ff191686151590811790915591519182527f17307eab39ab6107e8899845ad3d59bd9653f200f220920489ca2b5937696c31910160405180910390a3505050565b610fd2848484610c04565b610fde848484846110a1565b6108565760405162461bcd60e51b815260040161043e90611ae9565b606061100582610ad9565b600061101c60408051602081019091526000815290565b9050600081511161103c5760405180602001604052806000815250611067565b80611046846111a2565b60405160200161105792919061196d565b6040516020818303038152906040525b9392505050565b61107883836112a3565b61108560008484846110a1565b6104df5760405162461bcd60e51b815260040161043e90611ae9565b60006001600160a01b0384163b1561119757604051630a85bd0160e11b81526001600160a01b0385169063150b7a02906110e5903390899088908890600401611b3b565b6020604051808303816000875af1925050508015611120575060408051601f3d908101601f1916820190925261111d91810190611b78565b60015b61117d573d80801561114e576040519150601f19603f3d011682016040523d82523d6000602084013e611153565b606091505b5080516000036111755760405162461bcd60e51b815260040161043e90611ae9565b805181602001fd5b6001600160e01b031916630a85bd0160e11b149050610964565b506001949350505050565b6060816000036111c95750506040805180820190915260018152600360fc1b602082015290565b8160005b81156111f357806111dd816118bc565b91506111ec9050600a83611bab565b91506111cd565b60008167ffffffffffffffff81111561120e5761120e611531565b6040519080825280601f01601f191660200182016040528015611238576020820181803683370190505b5090505b84156109645761124d6001836119b5565b915061125a600a86611bbf565b6112659060306119c8565b60f81b81838151811061127a5761127a611890565b60200101906001600160f81b031916908160001a90535061129c600a86611bab565b945061123c565b6001600160a01b0382166112f95760405162461bcd60e51b815260206004820181905260248201527f4552433732313a206d696e7420746f20746865207a65726f2061646472657373604482015260640161043e565b6000818152600260205260409020546001600160a01b03161561135e5760405162461bcd60e51b815260206004820152601c60248201527f4552433732313a20746f6b656e20616c7265616479206d696e74656400000000604482015260640161043e565b6001600160a01b03821660009081526003602052604081208054600192906113879084906119c8565b909155505060008181526002602052604080822080546001600160a01b0319166001600160a01b03861690811790915590518392907fddf252ad1be2c89b69c2b068fc378daa952ba7f163c4a11628f55a4df523b3ef908290a45050565b6001600160e01b031981168114610ad657600080fd5b60006020828403121561140d57600080fd5b8135611067816113e5565b60005b8381101561143357818101518382015260200161141b565b50506000910152565b60008151808452611454816020860160208601611418565b601f01601f19169290920160200192915050565b602081526000611067602083018461143c565b60006020828403121561148d57600080fd5b5035919050565b80356001600160a01b03811681146114ab57600080fd5b919050565b600080604083850312156114c357600080fd5b6114cc83611494565b946020939093013593505050565b6000806000606084860312156114ef57600080fd5b6114f884611494565b925061150660208501611494565b9150604084013590509250925092565b60006020828403121561152857600080fd5b61106782611494565b634e487b7160e01b600052604160045260246000fd5b604051601f8201601f1916810167ffffffffffffffff8111828210171561157057611570611531565b604052919050565b600067ffffffffffffffff83111561159257611592611531565b6115a5601f8401601f1916602001611547565b90508281528383830111156115b957600080fd5b828260208301376000602084830101529392505050565b600082601f8301126115e157600080fd5b61106783833560208501611578565b60008060006060848603121561160557600080fd5b61160e84611494565b92506020808501359250604085013567ffffffffffffffff8082111561163357600080fd5b818701915087601f83011261164757600080fd5b81358181111561165957611659611531565b8060051b611668858201611547565b918252838101850191858101908b84111561168257600080fd5b86860192505b838310156116be578235858111156116a05760008081fd5b6116ae8d89838a01016115d0565b8352509186019190860190611688565b809750505050505050509250925092565b600080604083850312156116e257600080fd5b6116eb83611494565b91506020830135801515811461170057600080fd5b809150509250929050565b6000806000806080858703121561172157600080fd5b61172a85611494565b935061173860208601611494565b925060408501359150606085013567ffffffffffffffff81111561175b57600080fd5b8501601f8101871361176c57600080fd5b61177b87823560208401611578565b91505092959194509250565b6000806040838503121561179a57600080fd5b6117a383611494565b91506117b160208401611494565b90509250929050565b600080604083850312156117cd57600080fd5b6117d683611494565b9150602083013567ffffffffffffffff8111156117f257600080fd5b6117fe858286016115d0565b9150509250929050565b600181811c9082168061181c57607f821691505b60208210810361183c57634e487b7160e01b600052602260045260246000fd5b50919050565b6020808252602e908201527f4552433732313a2063616c6c6572206973206e6f7420746f6b656e206f776e6560408201526d1c881b9bdc88185c1c1c9bdd995960921b606082015260800190565b634e487b7160e01b600052603260045260246000fd5b634e487b7160e01b600052601160045260246000fd5b6000600182016118ce576118ce6118a6565b5060010190565b604080825283519082018190526000906020906060840190828701845b8281101561190e578151845292840192908401906001016118f2565b50505083810382850152845180825282820190600581901b8301840187850160005b8381101561195e57601f1986840301855261194c83835161143c565b94870194925090860190600101611930565b50909998505050505050505050565b6000835161197f818460208801611418565b835190830190611993818360208801611418565b01949350505050565b828152604060208201526000610964604083018461143c565b8181038181111561030b5761030b6118a6565b8082018082111561030b5761030b6118a6565b601f8211156104df57600081815260208120601f850160051c81016020861015611a025750805b601f850160051c820191505b81811015611a2157828155600101611a0e565b505050505050565b815167ffffffffffffffff811115611a4357611a43611531565b611a5781611a518454611808565b846119db565b602080601f831160018114611a8c5760008415611a745750858301515b600019600386901b1c1916600185901b178555611a21565b600085815260208120601f198616915b82811015611abb57888601518255948401946001909101908401611a9c565b5085821015611ad95787850151600019600388901b60f8161c191681555b5050505050600190811b01905550565b60208082526032908201527f4552433732313a207472616e7366657220746f206e6f6e20455243373231526560408201527131b2b4bb32b91034b6b83632b6b2b73a32b960711b606082015260800190565b6001600160a01b0385811682528416602082015260408101839052608060608201819052600090611b6e9083018461143c565b9695505050505050565b600060208284031215611b8a57600080fd5b8151611067816113e5565b634e487b7160e01b600052601260045260246000fd5b600082611bba57611bba611b95565b500490565b600082611bce57611bce611b95565b50069056fea26469706673582212205a5ed8467dbc634a87f0b6151866bcdcb9a3eb07c564bff5d75486859a53c26964736f6c63430008100033",
  "linkReferences": {},
  "deployedLinkReferences": {}
}